{
  "contractName": "Certificate",
  "abi": [
    {
      "constant": true,
      "inputs": [
        {
          "internalType": "uint256",
          "name": "",
          "type": "uint256"
        }
      ],
      "name": "certificates",
      "outputs": [
        {
          "internalType": "string",
          "name": "name",
          "type": "string"
        },
        {
          "internalType": "string",
          "name": "prn",
          "type": "string"
        },
        {
          "internalType": "string",
          "name": "course",
          "type": "string"
        },
        {
          "internalType": "string",
          "name": "issuedDate",
          "type": "string"
        },
        {
          "internalType": "bytes32",
          "name": "hashCode",
          "type": "bytes32"
        }
      ],
      "payable": false,
      "stateMutability": "view",
      "type": "function"
    },
    {
      "constant": false,
      "inputs": [
        {
          "internalType": "string",
          "name": "_name",
          "type": "string"
        },
        {
          "internalType": "string",
          "name": "_prn",
          "type": "string"
        },
        {
          "internalType": "string",
          "name": "_course",
          "type": "string"
        },
        {
          "internalType": "string",
          "name": "_issuedDate",
          "type": "string"
        }
      ],
      "name": "addCertificate",
      "outputs": [],
      "payable": false,
      "stateMutability": "nonpayable",
      "type": "function"
    },
    {
      "constant": true,
      "inputs": [
        {
          "internalType": "uint256",
          "name": "index",
          "type": "uint256"
        }
      ],
      "name": "getCertificate",
      "outputs": [
        {
          "internalType": "string",
          "name": "",
          "type": "string"
        },
        {
          "internalType": "string",
          "name": "",
          "type": "string"
        },
        {
          "internalType": "string",
          "name": "",
          "type": "string"
        },
        {
          "internalType": "string",
          "name": "",
          "type": "string"
        },
        {
          "internalType": "bytes32",
          "name": "",
          "type": "bytes32"
        }
      ],
      "payable": false,
      "stateMutability": "view",
      "type": "function"
    },
    {
      "constant": true,
      "inputs": [
        {
          "internalType": "bytes32",
          "name": "_hashCode",
          "type": "bytes32"
        },
        {
          "internalType": "string",
          "name": "_prn",
          "type": "string"
        }
      ],
      "name": "checkCertificateMatch",
      "outputs": [
        {
          "internalType": "bool",
          "name": "",
          "type": "bool"
        }
      ],
      "payable": false,
      "stateMutability": "view",
      "type": "function"
    },
    {
      "constant": true,
      "inputs": [],
      "name": "getCertificateCount",
      "outputs": [
        {
          "internalType": "uint256",
          "name": "",
          "type": "uint256"
        }
      ],
      "payable": false,
      "stateMutability": "view",
      "type": "function"
    }
  ],
  "bytecode": "0x608060405234801561001057600080fd5b506111d3806100206000396000f3fe608060405234801561001057600080fd5b50600436106100575760003560e01c806351640fee1461005c578063663b3e221461022a57806372c44638146102475780638809f7271461047c5780638c410edb14610496575b600080fd5b6100796004803603602081101561007257600080fd5b5035610555565b604051808060200180602001806020018060200186815260200185810385528a818151815260200191508051906020019080838360005b838110156100c85781810151838201526020016100b0565b50505050905090810190601f1680156100f55780820380516001836020036101000a031916815260200191505b5085810384528951815289516020918201918b019080838360005b83811015610128578181015183820152602001610110565b50505050905090810190601f1680156101555780820380516001836020036101000a031916815260200191505b5085810383528851815288516020918201918a019080838360005b83811015610188578181015183820152602001610170565b50505050905090810190601f1680156101b55780820380516001836020036101000a031916815260200191505b50858103825287518152875160209182019189019080838360005b838110156101e85781810151838201526020016101d0565b50505050905090810190601f1680156102155780820380516001836020036101000a031916815260200191505b50995050505050505050505060405180910390f35b6100796004803603602081101561024057600080fd5b5035610868565b61047a6004803603608081101561025d57600080fd5b810190602081018135600160201b81111561027757600080fd5b82018360208201111561028957600080fd5b803590602001918460018302840111600160201b831117156102aa57600080fd5b91908080601f0160208091040260200160405190810160405280939291908181526020018383808284376000920191909152509295949360208101935035915050600160201b8111156102fc57600080fd5b82018360208201111561030e57600080fd5b803590602001918460018302840111600160201b8311171561032f57600080fd5b91908080601f0160208091040260200160405190810160405280939291908181526020018383808284376000920191909152509295949360208101935035915050600160201b81111561038157600080fd5b82018360208201111561039357600080fd5b803590602001918460018302840111600160201b831117156103b457600080fd5b91908080601f0160208091040260200160405190810160405280939291908181526020018383808284376000920191909152509295949360208101935035915050600160201b81111561040657600080fd5b82018360208201111561041857600080fd5b803590602001918460018302840111600160201b8311171561043957600080fd5b91908080601f016020809104026020016040519081016040528093929190818152602001838380828437600092019190915250929550610ade945050505050565b005b610484610d15565b60408051918252519081900360200190f35b610541600480360360408110156104ac57600080fd5b81359190810190604081016020820135600160201b8111156104cd57600080fd5b8201836020820111156104df57600080fd5b803590602001918460018302840111600160201b8311171561050057600080fd5b91908080601f016020809104026020016040519081016040528093929190818152602001838380828437600092019190915250929550610d1c945050505050565b604080519115158252519081900360200190f35b6060806060806000808054905086106105ab576040805162461bcd60e51b8152602060048201526013602482015272496e646578206f7574206f6620626f756e647360681b604482015290519081900360640190fd5b6105b36110d4565b600087815481106105c057fe5b600091825260209182902060408051600593909302909101805460026001821615610100026000190190911604601f8101859004909402830160c090810190925260a08301848152929390928492909184918401828280156106635780601f1061063857610100808354040283529160200191610663565b820191906000526020600020905b81548152906001019060200180831161064657829003601f168201915b50505050508152602001600182018054600181600116156101000203166002900480601f0160208091040260200160405190810160405280929190818152602001828054600181600116156101000203166002900480156107055780601f106106da57610100808354040283529160200191610705565b820191906000526020600020905b8154815290600101906020018083116106e857829003601f168201915b5050509183525050600282810180546040805160206001841615610100026000190190931694909404601f810183900483028501830190915280845293810193908301828280156107975780601f1061076c57610100808354040283529160200191610797565b820191906000526020600020905b81548152906001019060200180831161077a57829003601f168201915b505050918352505060038201805460408051602060026001851615610100026000190190941693909304601f810184900484028201840190925281815293820193929183018282801561082b5780601f106108005761010080835404028352916020019161082b565b820191906000526020600020905b81548152906001019060200180831161080e57829003601f168201915b50505091835250506004919091015460209182015281519082015160408301516060840151608090940151929b919a509850919650945092505050565b6000818154811061087557fe5b60009182526020918290206005919091020180546040805160026001841615610100026000190190931692909204601f81018590048502830185019091528082529193509183919083018282801561090e5780601f106108e35761010080835404028352916020019161090e565b820191906000526020600020905b8154815290600101906020018083116108f157829003601f168201915b505050505090806001018054600181600116156101000203166002900480601f0160208091040260200160405190810160405280929190818152602001828054600181600116156101000203166002900480156109ac5780601f10610981576101008083540402835291602001916109ac565b820191906000526020600020905b81548152906001019060200180831161098f57829003601f168201915b50505060028085018054604080516020601f6000196101006001871615020190941695909504928301859004850281018501909152818152959695945090925090830182828015610a3e5780601f10610a1357610100808354040283529160200191610a3e565b820191906000526020600020905b815481529060010190602001808311610a2157829003601f168201915b5050505060038301805460408051602060026001851615610100026000190190941693909304601f8101849004840282018401909252818152949594935090830182828015610ace5780601f10610aa357610100808354040283529160200191610ace565b820191906000526020600020905b815481529060010190602001808311610ab157829003601f168201915b5050505050908060040154905085565b6000848484846040516020018085805190602001908083835b60208310610b165780518252601f199092019160209182019101610af7565b51815160209384036101000a600019018019909216911617905287519190930192870191508083835b60208310610b5e5780518252601f199092019160209182019101610b3f565b51815160209384036101000a600019018019909216911617905286519190930192860191508083835b60208310610ba65780518252601f199092019160209182019101610b87565b51815160209384036101000a600019018019909216911617905285519190930192850191508083835b60208310610bee5780518252601f199092019160209182019101610bcf565b6001836020036101000a038019825116818451168082178552505050505050905001945050505050604051602081830303815290604052805190602001209050610c366110d4565b506040805160a0810182528681526020808201879052918101859052606081018490526080810183905260008054600181018083559180528251805193949293859360059093027f290decd9548b62a8d60345a988386fc84ba6bc95484008f6362f93160ef3e5630192610cae928492910190611106565b506020828101518051610cc79260018501920190611106565b5060408201518051610ce3916002840191602090910190611106565b5060608201518051610cff916003840191602090910190611106565b5060808201518160040155505050505050505050565b6000545b90565b6000805b6000548110156110c857610d326110d4565b60008281548110610d3f57fe5b600091825260209182902060408051600593909302909101805460026001821615610100026000190190911604601f8101859004909402830160c090810190925260a0830184815292939092849290918491840182828015610de25780601f10610db757610100808354040283529160200191610de2565b820191906000526020600020905b815481529060010190602001808311610dc557829003601f168201915b50505050508152602001600182018054600181600116156101000203166002900480601f016020809104026020016040519081016040528092919081815260200182805460018160011615610100020316600290048015610e845780601f10610e5957610100808354040283529160200191610e84565b820191906000526020600020905b815481529060010190602001808311610e6757829003601f168201915b5050509183525050600282810180546040805160206001841615610100026000190190931694909404601f81018390048302850183019091528084529381019390830182828015610f165780601f10610eeb57610100808354040283529160200191610f16565b820191906000526020600020905b815481529060010190602001808311610ef957829003601f168201915b505050918352505060038201805460408051602060026001851615610100026000190190941693909304601f8101849004840282018401909252818152938201939291830182828015610faa5780601f10610f7f57610100808354040283529160200191610faa565b820191906000526020600020905b815481529060010190602001808311610f8d57829003601f168201915b5050505050815260200160048201548152505090508481608001511480156110af5750836040516020018082805190602001908083835b602083106110005780518252601f199092019160209182019101610fe1565b6001836020036101000a0380198251168184511680821785525050505050509050019150506040516020818303038152906040528051906020012081602001516040516020018082805190602001908083835b602083106110725780518252601f199092019160209182019101611053565b6001836020036101000a03801982511681845116808217855250505050505090500191505060405160208183030381529060405280519060200120145b156110bf576001925050506110ce565b50600101610d20565b50600090505b92915050565b6040518060a0016040528060608152602001606081526020016060815260200160608152602001600080191681525090565b828054600181600116156101000203166002900490600052602060002090601f016020900481019282601f1061114757805160ff1916838001178555611174565b82800160010185558215611174579182015b82811115611174578251825591602001919060010190611159565b50611180929150611184565b5090565b610d1991905b80821115611180576000815560010161118a56fea265627a7a7231582011e1be8d961a2afbf6ae9bde9a8e727708e1ce376f8efab4cd8448c6ef2e276e64736f6c63430005100032",
  "source": "pragma solidity ^0.5.0;\n\ncontract Certificate {\n    struct CertificateData {\n        string name;\n        string prn;\n        string course;\n        string issuedDate;\n        bytes32 hashCode; \n    }\n\n    CertificateData[] public certificates;\n\n    function addCertificate(\n        string memory _name,\n        string memory _prn,\n        string memory _course,\n        string memory _issuedDate\n    ) public {\n        bytes32 newHashCode = keccak256(abi.encodePacked(_name, _prn, _course, _issuedDate));\n\n        CertificateData memory newCertificate = CertificateData({\n            name: _name,\n            prn: _prn,\n            course: _course,\n            issuedDate: _issuedDate,\n            hashCode: newHashCode \n        });\n\n        certificates.push(newCertificate);\n    }\n\n    function getCertificate(uint256 index) public view returns (\n        string memory, string memory, string memory, string memory, bytes32\n    ){\n        require(index < certificates.length, \"Index out of bounds\");\n\n        CertificateData memory certificate = certificates[index];\n\n        return (\n            certificate.name, certificate.prn, certificate.course, certificate.issuedDate,\n            certificate.hashCode\n        );\n    }\n\n    function checkCertificateMatch(bytes32 _hashCode, string memory _prn) \n    public view returns (bool) {\n        for (uint256 i = 0; i < certificates.length; i++) {\n            CertificateData memory cert = certificates[i];\n            \n            if (cert.hashCode == _hashCode && keccak256(abi.encodePacked(cert.prn)) == keccak256(abi.encodePacked(_prn))) {\n                return true;                \n            }\n        }\n\n        return false;\n    }\n\n    function getCertificateCount() public view returns (uint256) {\n        return certificates.length;\n    }\n}\n",
  "sourcePath": "/home/shri/projects/certification-using-blockchain/contracts/Certificate.sol",
  "compiler": {
    "name": "solc",
    "version": "0.5.16+commit.9c3226ce.Emscripten.clang"
  },
  "schemaVersion": "3.4.16",
  "updatedAt": "2024-02-28T12:08:17.691Z",
  "networkType": "ethereum",
  "devdoc": {
    "methods": {}
  },
  "userdoc": {
    "methods": {}
  }
}